{
  "_format": "hh-sol-artifact-1",
  "contractName": "TokenERC721",
  "sourceName": "contracts/TokenERC721.sol",
  "abi": [
    {
      "inputs": [
        {
          "internalType": "string",
          "name": "_name",
          "type": "string"
        },
        {
          "internalType": "string",
          "name": "_symbol",
          "type": "string"
        }
      ],
      "stateMutability": "nonpayable",
      "type": "constructor"
    },
    {
      "anonymous": false,
      "inputs": [
        {
          "indexed": true,
          "internalType": "address",
          "name": "owner",
          "type": "address"
        },
        {
          "indexed": true,
          "internalType": "address",
          "name": "approved",
          "type": "address"
        },
        {
          "indexed": true,
          "internalType": "uint256",
          "name": "tokenId",
          "type": "uint256"
        }
      ],
      "name": "Approval",
      "type": "event"
    },
    {
      "anonymous": false,
      "inputs": [
        {
          "indexed": true,
          "internalType": "address",
          "name": "owner",
          "type": "address"
        },
        {
          "indexed": true,
          "internalType": "address",
          "name": "operator",
          "type": "address"
        },
        {
          "indexed": false,
          "internalType": "bool",
          "name": "approved",
          "type": "bool"
        }
      ],
      "name": "ApprovalForAll",
      "type": "event"
    },
    {
      "anonymous": false,
      "inputs": [
        {
          "indexed": false,
          "internalType": "address[]",
          "name": "_addresses",
          "type": "address[]"
        },
        {
          "indexed": false,
          "internalType": "uint256",
          "name": "_startTokenId",
          "type": "uint256"
        }
      ],
      "name": "MintBatchAirdrop",
      "type": "event"
    },
    {
      "anonymous": false,
      "inputs": [
        {
          "indexed": false,
          "internalType": "address",
          "name": "_owner",
          "type": "address"
        },
        {
          "indexed": false,
          "internalType": "uint256",
          "name": "_startTokenId",
          "type": "uint256"
        },
        {
          "indexed": false,
          "internalType": "uint256",
          "name": "_numTokens",
          "type": "uint256"
        }
      ],
      "name": "MintToOwner",
      "type": "event"
    },
    {
      "anonymous": false,
      "inputs": [
        {
          "indexed": false,
          "internalType": "address",
          "name": "_account",
          "type": "address"
        }
      ],
      "name": "MinterAdded",
      "type": "event"
    },
    {
      "anonymous": false,
      "inputs": [
        {
          "indexed": false,
          "internalType": "address",
          "name": "_account",
          "type": "address"
        }
      ],
      "name": "MinterRemoved",
      "type": "event"
    },
    {
      "anonymous": false,
      "inputs": [],
      "name": "MintingLocked",
      "type": "event"
    },
    {
      "anonymous": false,
      "inputs": [
        {
          "indexed": true,
          "internalType": "address",
          "name": "previousOwner",
          "type": "address"
        },
        {
          "indexed": true,
          "internalType": "address",
          "name": "newOwner",
          "type": "address"
        }
      ],
      "name": "OwnershipTransferred",
      "type": "event"
    },
    {
      "anonymous": false,
      "inputs": [
        {
          "indexed": true,
          "internalType": "address",
          "name": "from",
          "type": "address"
        },
        {
          "indexed": true,
          "internalType": "address",
          "name": "to",
          "type": "address"
        },
        {
          "indexed": true,
          "internalType": "uint256",
          "name": "tokenId",
          "type": "uint256"
        }
      ],
      "name": "Transfer",
      "type": "event"
    },
    {
      "anonymous": false,
      "inputs": [
        {
          "indexed": false,
          "internalType": "address",
          "name": "_sender",
          "type": "address"
        },
        {
          "indexed": false,
          "internalType": "address[]",
          "name": "_addresses",
          "type": "address[]"
        },
        {
          "indexed": false,
          "internalType": "uint256[]",
          "name": "_tokenIds",
          "type": "uint256[]"
        }
      ],
      "name": "TransferBatchAirdrop",
      "type": "event"
    },
    {
      "inputs": [
        {
          "internalType": "address",
          "name": "_account",
          "type": "address"
        }
      ],
      "name": "addMinter",
      "outputs": [],
      "stateMutability": "nonpayable",
      "type": "function"
    },
    {
      "inputs": [
        {
          "internalType": "address",
          "name": "to",
          "type": "address"
        },
        {
          "internalType": "uint256",
          "name": "tokenId",
          "type": "uint256"
        }
      ],
      "name": "approve",
      "outputs": [],
      "stateMutability": "nonpayable",
      "type": "function"
    },
    {
      "inputs": [
        {
          "internalType": "address",
          "name": "owner",
          "type": "address"
        }
      ],
      "name": "balanceOf",
      "outputs": [
        {
          "internalType": "uint256",
          "name": "",
          "type": "uint256"
        }
      ],
      "stateMutability": "view",
      "type": "function"
    },
    {
      "inputs": [
        {
          "internalType": "uint256",
          "name": "tokenId",
          "type": "uint256"
        }
      ],
      "name": "getApproved",
      "outputs": [
        {
          "internalType": "address",
          "name": "",
          "type": "address"
        }
      ],
      "stateMutability": "view",
      "type": "function"
    },
    {
      "inputs": [
        {
          "internalType": "address",
          "name": "owner",
          "type": "address"
        },
        {
          "internalType": "address",
          "name": "operator",
          "type": "address"
        }
      ],
      "name": "isApprovedForAll",
      "outputs": [
        {
          "internalType": "bool",
          "name": "",
          "type": "bool"
        }
      ],
      "stateMutability": "view",
      "type": "function"
    },
    {
      "inputs": [],
      "name": "isMintingLocked",
      "outputs": [
        {
          "internalType": "bool",
          "name": "",
          "type": "bool"
        }
      ],
      "stateMutability": "view",
      "type": "function"
    },
    {
      "inputs": [],
      "name": "lockMinting",
      "outputs": [],
      "stateMutability": "nonpayable",
      "type": "function"
    },
    {
      "inputs": [
        {
          "internalType": "address[]",
          "name": "_addresses",
          "type": "address[]"
        }
      ],
      "name": "mintBatchAirdrop",
      "outputs": [],
      "stateMutability": "nonpayable",
      "type": "function"
    },
    {
      "inputs": [
        {
          "internalType": "uint256",
          "name": "_numTokens",
          "type": "uint256"
        }
      ],
      "name": "mintToOwner",
      "outputs": [],
      "stateMutability": "nonpayable",
      "type": "function"
    },
    {
      "inputs": [
        {
          "internalType": "address",
          "name": "",
          "type": "address"
        }
      ],
      "name": "minters",
      "outputs": [
        {
          "internalType": "bool",
          "name": "",
          "type": "bool"
        }
      ],
      "stateMutability": "view",
      "type": "function"
    },
    {
      "inputs": [],
      "name": "name",
      "outputs": [
        {
          "internalType": "string",
          "name": "",
          "type": "string"
        }
      ],
      "stateMutability": "view",
      "type": "function"
    },
    {
      "inputs": [],
      "name": "owner",
      "outputs": [
        {
          "internalType": "address",
          "name": "",
          "type": "address"
        }
      ],
      "stateMutability": "view",
      "type": "function"
    },
    {
      "inputs": [
        {
          "internalType": "uint256",
          "name": "tokenId",
          "type": "uint256"
        }
      ],
      "name": "ownerOf",
      "outputs": [
        {
          "internalType": "address",
          "name": "",
          "type": "address"
        }
      ],
      "stateMutability": "view",
      "type": "function"
    },
    {
      "inputs": [
        {
          "internalType": "address",
          "name": "_account",
          "type": "address"
        }
      ],
      "name": "removeMinter",
      "outputs": [],
      "stateMutability": "nonpayable",
      "type": "function"
    },
    {
      "inputs": [],
      "name": "renounceOwnership",
      "outputs": [],
      "stateMutability": "nonpayable",
      "type": "function"
    },
    {
      "inputs": [
        {
          "internalType": "address",
          "name": "from",
          "type": "address"
        },
        {
          "internalType": "address",
          "name": "to",
          "type": "address"
        },
        {
          "internalType": "uint256",
          "name": "tokenId",
          "type": "uint256"
        }
      ],
      "name": "safeTransferFrom",
      "outputs": [],
      "stateMutability": "nonpayable",
      "type": "function"
    },
    {
      "inputs": [
        {
          "internalType": "address",
          "name": "from",
          "type": "address"
        },
        {
          "internalType": "address",
          "name": "to",
          "type": "address"
        },
        {
          "internalType": "uint256",
          "name": "tokenId",
          "type": "uint256"
        },
        {
          "internalType": "bytes",
          "name": "_data",
          "type": "bytes"
        }
      ],
      "name": "safeTransferFrom",
      "outputs": [],
      "stateMutability": "nonpayable",
      "type": "function"
    },
    {
      "inputs": [
        {
          "internalType": "address",
          "name": "operator",
          "type": "address"
        },
        {
          "internalType": "bool",
          "name": "approved",
          "type": "bool"
        }
      ],
      "name": "setApprovalForAll",
      "outputs": [],
      "stateMutability": "nonpayable",
      "type": "function"
    },
    {
      "inputs": [
        {
          "internalType": "bytes4",
          "name": "interfaceId",
          "type": "bytes4"
        }
      ],
      "name": "supportsInterface",
      "outputs": [
        {
          "internalType": "bool",
          "name": "",
          "type": "bool"
        }
      ],
      "stateMutability": "view",
      "type": "function"
    },
    {
      "inputs": [],
      "name": "symbol",
      "outputs": [
        {
          "internalType": "string",
          "name": "",
          "type": "string"
        }
      ],
      "stateMutability": "view",
      "type": "function"
    },
    {
      "inputs": [
        {
          "internalType": "uint256",
          "name": "index",
          "type": "uint256"
        }
      ],
      "name": "tokenByIndex",
      "outputs": [
        {
          "internalType": "uint256",
          "name": "",
          "type": "uint256"
        }
      ],
      "stateMutability": "view",
      "type": "function"
    },
    {
      "inputs": [
        {
          "internalType": "address",
          "name": "owner",
          "type": "address"
        },
        {
          "internalType": "uint256",
          "name": "index",
          "type": "uint256"
        }
      ],
      "name": "tokenOfOwnerByIndex",
      "outputs": [
        {
          "internalType": "uint256",
          "name": "",
          "type": "uint256"
        }
      ],
      "stateMutability": "view",
      "type": "function"
    },
    {
      "inputs": [
        {
          "internalType": "uint256",
          "name": "tokenId",
          "type": "uint256"
        }
      ],
      "name": "tokenURI",
      "outputs": [
        {
          "internalType": "string",
          "name": "",
          "type": "string"
        }
      ],
      "stateMutability": "view",
      "type": "function"
    },
    {
      "inputs": [],
      "name": "totalSupply",
      "outputs": [
        {
          "internalType": "uint256",
          "name": "",
          "type": "uint256"
        }
      ],
      "stateMutability": "view",
      "type": "function"
    },
    {
      "inputs": [
        {
          "internalType": "address[]",
          "name": "_addresses",
          "type": "address[]"
        },
        {
          "internalType": "uint256[]",
          "name": "_tokenIds",
          "type": "uint256[]"
        }
      ],
      "name": "transferBatchAirdrop",
      "outputs": [],
      "stateMutability": "nonpayable",
      "type": "function"
    },
    {
      "inputs": [
        {
          "internalType": "address",
          "name": "from",
          "type": "address"
        },
        {
          "internalType": "address",
          "name": "to",
          "type": "address"
        },
        {
          "internalType": "uint256",
          "name": "tokenId",
          "type": "uint256"
        }
      ],
      "name": "transferFrom",
      "outputs": [],
      "stateMutability": "nonpayable",
      "type": "function"
    },
    {
      "inputs": [
        {
          "internalType": "address",
          "name": "newOwner",
          "type": "address"
        }
      ],
      "name": "transferOwnership",
      "outputs": [],
      "stateMutability": "nonpayable",
      "type": "function"
    }
  ],
  "bytecode": "0x6080604052600c805460ff191690553480156200001b57600080fd5b5060405162002538380380620025388339810160408190526200003e91620002b2565b815182908290620000579060009060208501906200013f565b5080516200006d9060019060208401906200013f565b5050506200008a62000084620000e960201b60201c565b620000ed565b336000818152600d60205260409020805460ff191660011790557f6ae172837ea30b801fbfcdd4108aa1d5bf8ff775444fd70256b44e6bf3dfc3f6906040516001600160a01b03909116815260200160405180910390a1505062000359565b3390565b600a80546001600160a01b038381166001600160a01b0319831681179093556040519116919082907f8be0079c531659141344cd1fd0a4f28419497f9722a3daafe3b4186f6b6457e090600090a35050565b8280546200014d906200031c565b90600052602060002090601f016020900481019282620001715760008555620001bc565b82601f106200018c57805160ff1916838001178555620001bc565b82800160010185558215620001bc579182015b82811115620001bc5782518255916020019190600101906200019f565b50620001ca929150620001ce565b5090565b5b80821115620001ca5760008155600101620001cf565b634e487b7160e01b600052604160045260246000fd5b600082601f8301126200020d57600080fd5b81516001600160401b03808211156200022a576200022a620001e5565b604051601f8301601f19908116603f01168101908282118183101715620002555762000255620001e5565b816040528381526020925086838588010111156200027257600080fd5b600091505b8382101562000296578582018301518183018401529082019062000277565b83821115620002a85760008385830101525b9695505050505050565b60008060408385031215620002c657600080fd5b82516001600160401b0380821115620002de57600080fd5b620002ec86838701620001fb565b935060208501519150808211156200030357600080fd5b506200031285828601620001fb565b9150509250929050565b600181811c908216806200033157607f821691505b602082108114156200035357634e487b7160e01b600052602260045260246000fd5b50919050565b6121cf80620003696000396000f3fe608060405234801561001057600080fd5b50600436106101a95760003560e01c80635c8671ac116100f9578063a22cb46511610097578063c87b56dd11610071578063c87b56dd1461036a578063e985e9c51461037d578063f2fde38b146103b9578063f46eccc4146103cc57600080fd5b8063a22cb46514610331578063b4dbb02d14610344578063b88d4fde1461035757600080fd5b8063715018a6116100d3578063715018a6146102fd5780638da5cb5b1461030557806395d89b4114610316578063983b2d561461031e57600080fd5b80635c8671ac146102ca5780636352211e146102d757806370a08231146102ea57600080fd5b806318160ddd116101665780633092afd5116101405780633092afd51461027e57806342842e0e1461029157806348043f0d146102a45780634f6ccce7146102b757600080fd5b806318160ddd1461024657806323b872dd146102585780632f745c591461026b57600080fd5b806301ffc9a7146101ae57806306fdde03146101d6578063081812fc146101eb578063095ea7b3146102165780630b5b7cfe1461022b5780630d7982ad1461023e575b600080fd5b6101c16101bc366004611a02565b6103ef565b60405190151581526020015b60405180910390f35b6101de61041a565b6040516101cd9190611a77565b6101fe6101f9366004611a8a565b6104ac565b6040516001600160a01b0390911681526020016101cd565b610229610224366004611abf565b610546565b005b610229610239366004611bc6565b61065c565b610229610798565b6008545b6040519081526020016101cd565b610229610266366004611c81565b61081d565b61024a610279366004611abf565b61084e565b61022961028c366004611cbd565b6108e4565b61022961029f366004611c81565b610966565b6102296102b2366004611a8a565b610981565b61024a6102c5366004611a8a565b610a73565b600c546101c19060ff1681565b6101fe6102e5366004611a8a565b610b06565b61024a6102f8366004611cbd565b610b7d565b610229610c04565b600a546001600160a01b03166101fe565b6101de610c3a565b61022961032c366004611cbd565b610c49565b61022961033f366004611cd8565b610cc7565b610229610352366004611d14565b610cd6565b610229610365366004611d49565b610def565b6101de610378366004611a8a565b610e27565b6101c161038b366004611e09565b6001600160a01b03918216600090815260056020908152604080832093909416825291909152205460ff1690565b6102296103c7366004611cbd565b610f0f565b6101c16103da366004611cbd565b600d6020526000908152604090205460ff1681565b60006001600160e01b0319821663780e9d6360e01b1480610414575061041482610faa565b92915050565b60606000805461042990611e3c565b80601f016020809104026020016040519081016040528092919081815260200182805461045590611e3c565b80156104a25780601f10610477576101008083540402835291602001916104a2565b820191906000526020600020905b81548152906001019060200180831161048557829003601f168201915b5050505050905090565b6000818152600260205260408120546001600160a01b031661052a5760405162461bcd60e51b815260206004820152602c60248201527f4552433732313a20617070726f76656420717565727920666f72206e6f6e657860448201526b34b9ba32b73a103a37b5b2b760a11b60648201526084015b60405180910390fd5b506000908152600460205260409020546001600160a01b031690565b600061055182610b06565b9050806001600160a01b0316836001600160a01b031614156105bf5760405162461bcd60e51b815260206004820152602160248201527f4552433732313a20617070726f76616c20746f2063757272656e74206f776e656044820152603960f91b6064820152608401610521565b336001600160a01b03821614806105db57506105db813361038b565b61064d5760405162461bcd60e51b815260206004820152603860248201527f4552433732313a20617070726f76652063616c6c6572206973206e6f74206f7760448201527f6e6572206e6f7220617070726f76656420666f7220616c6c00000000000000006064820152608401610521565b6106578383610ffa565b505050565b336000908152600d602052604090205460ff166106b45760405162461bcd60e51b815260206004820152601660248201527539b2b73232b91034b9903737ba10309036b4b73a32b960511b6044820152606401610521565b80518251146106fd5760405162461bcd60e51b81526020600482015260156024820152740c2e4e4c2f240d8cadccee8d040dad2e6dac2e8c6d605b1b6044820152606401610521565b60005b8251811015610758576107463384838151811061071f5761071f611e77565b602002602001015184848151811061073957610739611e77565b6020026020010151611068565b8061075081611ea3565b915050610700565b507f8b7eef27885578461e2ccc3383a66b8f2c11c70ff1a64cf209476c21f024239333838360405161078c93929190611f02565b60405180910390a15050565b600a546001600160a01b031633146107c25760405162461bcd60e51b815260040161052190611f68565b600c5460ff16156107e55760405162461bcd60e51b815260040161052190611f9d565b600c805460ff191660011790556040517f4997a17104cd4a97d010aae0c72b7e6fb456908b4458913a9ab1c7cb324b935190600090a1565b610827338261120f565b6108435760405162461bcd60e51b815260040161052190611fc8565b610657838383611068565b600061085983610b7d565b82106108bb5760405162461bcd60e51b815260206004820152602b60248201527f455243373231456e756d657261626c653a206f776e657220696e646578206f7560448201526a74206f6620626f756e647360a81b6064820152608401610521565b506001600160a01b03919091166000908152600660209081526040808320938352929052205490565b600a546001600160a01b0316331461090e5760405162461bcd60e51b815260040161052190611f68565b6001600160a01b0381166000818152600d6020908152604091829020805460ff1916905590519182527fe94479a9f7e1952cc78f2d6baab678adc1b772d936c6583def489e524cb6669291015b60405180910390a150565b61065783838360405180602001604052806000815250610def565b600a546001600160a01b031633146109ab5760405162461bcd60e51b815260040161052190611f68565b600c5460ff16156109ce5760405162461bcd60e51b815260040161052190611f9d565b60006109d9600b5490565b90506000805b83811015610a16576109f5600b80546001019055565b600b549150610a043383611306565b80610a0e81611ea3565b9150506109df565b507f2b9f21bde086933b4e9d11a456f65d51cdafde78790e79ddc2dfd5d9fc72110933610a44846001612019565b604080516001600160a01b039093168352602083019190915281018590526060015b60405180910390a1505050565b6000610a7e60085490565b8210610ae15760405162461bcd60e51b815260206004820152602c60248201527f455243373231456e756d657261626c653a20676c6f62616c20696e646578206f60448201526b7574206f6620626f756e647360a01b6064820152608401610521565b60088281548110610af457610af4611e77565b90600052602060002001549050919050565b6000818152600260205260408120546001600160a01b0316806104145760405162461bcd60e51b815260206004820152602960248201527f4552433732313a206f776e657220717565727920666f72206e6f6e657869737460448201526832b73a103a37b5b2b760b91b6064820152608401610521565b60006001600160a01b038216610be85760405162461bcd60e51b815260206004820152602a60248201527f4552433732313a2062616c616e636520717565727920666f7220746865207a65604482015269726f206164647265737360b01b6064820152608401610521565b506001600160a01b031660009081526003602052604090205490565b600a546001600160a01b03163314610c2e5760405162461bcd60e51b815260040161052190611f68565b610c386000611454565b565b60606001805461042990611e3c565b600a546001600160a01b03163314610c735760405162461bcd60e51b815260040161052190611f68565b6001600160a01b0381166000818152600d6020908152604091829020805460ff1916600117905590519182527f6ae172837ea30b801fbfcdd4108aa1d5bf8ff775444fd70256b44e6bf3dfc3f6910161095b565b610cd23383836114a6565b5050565b336000908152600d602052604090205460ff16610d2e5760405162461bcd60e51b815260206004820152601660248201527539b2b73232b91034b9903737ba10309036b4b73a32b960511b6044820152606401610521565b600c5460ff1615610d515760405162461bcd60e51b815260040161052190611f9d565b6000610d5c600b5490565b90506000805b8351811015610db357610d79600b80546001019055565b600b549150610da1848281518110610d9357610d93611e77565b602002602001015183611306565b80610dab81611ea3565b915050610d62565b507f9cf879bcff7f457f2ffe7bf0df15e798da344130ad47ebaf29a6f534ba60bbc183610de1846001612019565b604051610a66929190612031565b610df9338361120f565b610e155760405162461bcd60e51b815260040161052190611fc8565b610e2184848484611575565b50505050565b6000818152600260205260409020546060906001600160a01b0316610ea65760405162461bcd60e51b815260206004820152602f60248201527f4552433732314d657461646174613a2055524920717565727920666f72206e6f60448201526e3732bc34b9ba32b73a103a37b5b2b760891b6064820152608401610521565b6000610ebd60408051602081019091526000815290565b90506000815111610edd5760405180602001604052806000815250610f08565b80610ee7846115a8565b604051602001610ef8929190612053565b6040516020818303038152906040525b9392505050565b600a546001600160a01b03163314610f395760405162461bcd60e51b815260040161052190611f68565b6001600160a01b038116610f9e5760405162461bcd60e51b815260206004820152602660248201527f4f776e61626c653a206e6577206f776e657220697320746865207a65726f206160448201526564647265737360d01b6064820152608401610521565b610fa781611454565b50565b60006001600160e01b031982166380ac58cd60e01b1480610fdb57506001600160e01b03198216635b5e139f60e01b145b8061041457506301ffc9a760e01b6001600160e01b0319831614610414565b600081815260046020526040902080546001600160a01b0319166001600160a01b038416908117909155819061102f82610b06565b6001600160a01b03167f8c5be1e5ebec7d5bd14f71427d1e84f3dd0314c0f7b2291e5b200ac8c7c3b92560405160405180910390a45050565b826001600160a01b031661107b82610b06565b6001600160a01b0316146110df5760405162461bcd60e51b815260206004820152602560248201527f4552433732313a207472616e736665722066726f6d20696e636f72726563742060448201526437bbb732b960d91b6064820152608401610521565b6001600160a01b0382166111415760405162461bcd60e51b8152602060048201526024808201527f4552433732313a207472616e7366657220746f20746865207a65726f206164646044820152637265737360e01b6064820152608401610521565b61114c8383836116a6565b611157600082610ffa565b6001600160a01b0383166000908152600360205260408120805460019290611180908490612082565b90915550506001600160a01b03821660009081526003602052604081208054600192906111ae908490612019565b909155505060008181526002602052604080822080546001600160a01b0319166001600160a01b0386811691821790925591518493918716917fddf252ad1be2c89b69c2b068fc378daa952ba7f163c4a11628f55a4df523b3ef91a4505050565b6000818152600260205260408120546001600160a01b03166112885760405162461bcd60e51b815260206004820152602c60248201527f4552433732313a206f70657261746f7220717565727920666f72206e6f6e657860448201526b34b9ba32b73a103a37b5b2b760a11b6064820152608401610521565b600061129383610b06565b9050806001600160a01b0316846001600160a01b031614806112ce5750836001600160a01b03166112c3846104ac565b6001600160a01b0316145b806112fe57506001600160a01b0380821660009081526005602090815260408083209388168352929052205460ff165b949350505050565b6001600160a01b03821661135c5760405162461bcd60e51b815260206004820181905260248201527f4552433732313a206d696e7420746f20746865207a65726f20616464726573736044820152606401610521565b6000818152600260205260409020546001600160a01b0316156113c15760405162461bcd60e51b815260206004820152601c60248201527f4552433732313a20746f6b656e20616c7265616479206d696e746564000000006044820152606401610521565b6113cd600083836116a6565b6001600160a01b03821660009081526003602052604081208054600192906113f6908490612019565b909155505060008181526002602052604080822080546001600160a01b0319166001600160a01b03861690811790915590518392907fddf252ad1be2c89b69c2b068fc378daa952ba7f163c4a11628f55a4df523b3ef908290a45050565b600a80546001600160a01b038381166001600160a01b0319831681179093556040519116919082907f8be0079c531659141344cd1fd0a4f28419497f9722a3daafe3b4186f6b6457e090600090a35050565b816001600160a01b0316836001600160a01b031614156115085760405162461bcd60e51b815260206004820152601960248201527f4552433732313a20617070726f766520746f2063616c6c6572000000000000006044820152606401610521565b6001600160a01b03838116600081815260056020908152604080832094871680845294825291829020805460ff191686151590811790915591519182527f17307eab39ab6107e8899845ad3d59bd9653f200f220920489ca2b5937696c31910160405180910390a3505050565b611580848484611068565b61158c8484848461175e565b610e215760405162461bcd60e51b815260040161052190612099565b6060816115cc5750506040805180820190915260018152600360fc1b602082015290565b8160005b81156115f657806115e081611ea3565b91506115ef9050600a83612101565b91506115d0565b60008167ffffffffffffffff81111561161157611611611ae9565b6040519080825280601f01601f19166020018201604052801561163b576020820181803683370190505b5090505b84156112fe57611650600183612082565b915061165d600a86612115565b611668906030612019565b60f81b81838151811061167d5761167d611e77565b60200101906001600160f81b031916908160001a90535061169f600a86612101565b945061163f565b6001600160a01b038316611701576116fc81600880546000838152600960205260408120829055600182018355919091527ff3f7a9fe364faab93b216da50a3214154f22a0a2b415b23a84c8169e8b636ee30155565b611724565b816001600160a01b0316836001600160a01b03161461172457611724838261185c565b6001600160a01b03821661173b57610657816118f9565b826001600160a01b0316826001600160a01b0316146106575761065782826119a8565b60006001600160a01b0384163b1561185157604051630a85bd0160e11b81526001600160a01b0385169063150b7a02906117a2903390899088908890600401612129565b6020604051808303816000875af19250505080156117dd575060408051601f3d908101601f191682019092526117da91810190612166565b60015b611837573d80801561180b576040519150601f19603f3d011682016040523d82523d6000602084013e611810565b606091505b50805161182f5760405162461bcd60e51b815260040161052190612099565b805181602001fd5b6001600160e01b031916630a85bd0160e11b1490506112fe565b506001949350505050565b6000600161186984610b7d565b6118739190612082565b6000838152600760205260409020549091508082146118c6576001600160a01b03841660009081526006602090815260408083208584528252808320548484528184208190558352600790915290208190555b5060009182526007602090815260408084208490556001600160a01b039094168352600681528383209183525290812055565b60085460009061190b90600190612082565b6000838152600960205260408120546008805493945090928490811061193357611933611e77565b90600052602060002001549050806008838154811061195457611954611e77565b600091825260208083209091019290925582815260099091526040808220849055858252812055600880548061198c5761198c612183565b6001900381819060005260206000200160009055905550505050565b60006119b383610b7d565b6001600160a01b039093166000908152600660209081526040808320868452825280832085905593825260079052919091209190915550565b6001600160e01b031981168114610fa757600080fd5b600060208284031215611a1457600080fd5b8135610f08816119ec565b60005b83811015611a3a578181015183820152602001611a22565b83811115610e215750506000910152565b60008151808452611a63816020860160208601611a1f565b601f01601f19169290920160200192915050565b602081526000610f086020830184611a4b565b600060208284031215611a9c57600080fd5b5035919050565b80356001600160a01b0381168114611aba57600080fd5b919050565b60008060408385031215611ad257600080fd5b611adb83611aa3565b946020939093013593505050565b634e487b7160e01b600052604160045260246000fd5b604051601f8201601f1916810167ffffffffffffffff81118282101715611b2857611b28611ae9565b604052919050565b600067ffffffffffffffff821115611b4a57611b4a611ae9565b5060051b60200190565b600082601f830112611b6557600080fd5b81356020611b7a611b7583611b30565b611aff565b82815260059290921b84018101918181019086841115611b9957600080fd5b8286015b84811015611bbb57611bae81611aa3565b8352918301918301611b9d565b509695505050505050565b60008060408385031215611bd957600080fd5b823567ffffffffffffffff80821115611bf157600080fd5b611bfd86838701611b54565b9350602091508185013581811115611c1457600080fd5b85019050601f81018613611c2757600080fd5b8035611c35611b7582611b30565b81815260059190911b82018301908381019088831115611c5457600080fd5b928401925b82841015611c7257833582529284019290840190611c59565b80955050505050509250929050565b600080600060608486031215611c9657600080fd5b611c9f84611aa3565b9250611cad60208501611aa3565b9150604084013590509250925092565b600060208284031215611ccf57600080fd5b610f0882611aa3565b60008060408385031215611ceb57600080fd5b611cf483611aa3565b915060208301358015158114611d0957600080fd5b809150509250929050565b600060208284031215611d2657600080fd5b813567ffffffffffffffff811115611d3d57600080fd5b6112fe84828501611b54565b60008060008060808587031215611d5f57600080fd5b611d6885611aa3565b93506020611d77818701611aa3565b935060408601359250606086013567ffffffffffffffff80821115611d9b57600080fd5b818801915088601f830112611daf57600080fd5b813581811115611dc157611dc1611ae9565b611dd3601f8201601f19168501611aff565b91508082528984828501011115611de957600080fd5b808484018584013760008482840101525080935050505092959194509250565b60008060408385031215611e1c57600080fd5b611e2583611aa3565b9150611e3360208401611aa3565b90509250929050565b600181811c90821680611e5057607f821691505b60208210811415611e7157634e487b7160e01b600052602260045260246000fd5b50919050565b634e487b7160e01b600052603260045260246000fd5b634e487b7160e01b600052601160045260246000fd5b6000600019821415611eb757611eb7611e8d565b5060010190565b600081518084526020808501945080840160005b83811015611ef75781516001600160a01b031687529582019590820190600101611ed2565b509495945050505050565b6001600160a01b038416815260606020808301829052600091611f2790840186611ebe565b838103604085015284518082528286019183019060005b81811015611f5a57835183529284019291840191600101611f3e565b509098975050505050505050565b6020808252818101527f4f776e61626c653a2063616c6c6572206973206e6f7420746865206f776e6572604082015260600190565b6020808252601190820152701b5a5b9d1a5b99c81a5cc81b1bd8dad959607a1b604082015260600190565b60208082526031908201527f4552433732313a207472616e736665722063616c6c6572206973206e6f74206f6040820152701ddb995c881b9bdc88185c1c1c9bdd9959607a1b606082015260800190565b6000821982111561202c5761202c611e8d565b500190565b6040815260006120446040830185611ebe565b90508260208301529392505050565b60008351612065818460208801611a1f565b835190830190612079818360208801611a1f565b01949350505050565b60008282101561209457612094611e8d565b500390565b60208082526032908201527f4552433732313a207472616e7366657220746f206e6f6e20455243373231526560408201527131b2b4bb32b91034b6b83632b6b2b73a32b960711b606082015260800190565b634e487b7160e01b600052601260045260246000fd5b600082612110576121106120eb565b500490565b600082612124576121246120eb565b500690565b6001600160a01b038581168252841660208201526040810183905260806060820181905260009061215c90830184611a4b565b9695505050505050565b60006020828403121561217857600080fd5b8151610f08816119ec565b634e487b7160e01b600052603160045260246000fdfea2646970667358221220b03f2d8336b6444ecda2bdadacce10948d9c75a919f543c7103153761ae5e5d364736f6c634300080b0033",
  "linkReferences": {},
  "deployedLinkReferences": {}
}